:020000040000FA
:1000000000700020090500002505000027050000FC
:10001000290500002B0500002D0500000000000050
:100020000000000000000000000000002F0500009C
:1000300031050000000000003305000039200000F9
:1000400039050000390500003905000039050000B8
:1000500039050000390500003905000039050000A8
:100060003905000039050000390500003905000098
:100070003905000039050000390500003905000088
:100080003905000039050000390500003905000078
:100090003905000039050000390500003905000068
:1000A0003905000039050000390500003905000058
:1000B0003905000039050000390500003905000048
:1000C00039050000651300003905000039050000FE
:1000D0003905000039050000390500003905000028
:1000E0003905000039050000390500003905000018
:1000F0003905000039050000390500003905000008
:10010000E111000039050000390500003905000043
:1001100039050000390500003905000039050000E7
:1001200039050000390500003905000039050000D7
:10013000390500009116000039050000390500005E
:1001400039050000390500003905000039050000B7
:1001500039050000390500003905000039050000A7
:100160003905000039050000390500003905000097
:100170003905000039050000390500003905000087
:100180003905000039050000390500003905000077
:100190003905000039050000390500003905000067
:1001A0003905000039050000390500003905000057
:1001B0003905000039050000390500003905000047
:1001C0003905000039050000390500003905000037
:1001D0003905000039050000390500003905000027
:1001E0003905000039050000390500003905000017
:1001F0003905000039050000390500003905000007
:1002000039050000390500003905000039050000F6
:1002100039050000390500003905000039050000E6
:1002200039050000390500003905000037050000D8
:1002300000000000000000000000000000000000BE
:1002400000000000000000000000000000000000AE
:10025000000000000000000000000000000000009E
:10026000000000000000000000000000000000008E
:10027000000000000000000000000000000000007E
:10028000000000000000000000000000000000006E
:10029000000000000000000000000000000000005E
:1002A000000000000000000000000000000000004E
:1002B000000000000000000000000000000000003E
:1002C000000000000000000000000000000000002E
:1002D000000000000000000000000000000000001E
:1002E000000000000000000000000000000000000E
:1002F00000000000000000000000000000000000FE
:1003000000000000000000000000000000000000ED
:1003100000000000000000000000000000000000DD
:1003200000000000000000000000000000000000CD
:1003300000000000000000000000000000000000BD
:1003400000000000000000000000000000000000AD
:10035000000000000000000000000000000000009D
:10036000000000000000000000000000000000008D
:10037000000000000000000000000000000000007D
:10038000000000000000000000000000000000006D
:10039000000000000000000000000000000000005D
:1003A000000000000000000000000000000000004D
:1003B000000000000000000000000000000000003D
:1003C000000000000000000000000000000000002D
:1003D000000000000000000000000000000000001D
:1003E000000000000000000000000000000000000D
:1003F00000000000000000000000000000000000FD
:10040000FFFFFFFFFFFFFFFFFFFFFFFFFEFFFFFFFD
:1004100008ED00E000F002F800F03CF80AA090E8D7
:10042000000C82448344AAF10107DA4501D100F0AF
:1004300031F8AFF2090EBAE80F0013F0010F18BF40
:10044000FB1A43F001031847242100004421000057
:10045000103A24BF78C878C1FAD8520724BF30C8F0
:1004600030C144BF04680C607047000000230024C2
:1004700000250026103A28BF78C1FBD8520728BFB4
:1004800030C148BF0B6070471FB502F061F81FBD57
:1004900010B510BDDFF80CD0FFF7F6FF02F052F8F0
:1004A00000F056F80070002003B4FFF7F1FF03BC22
:1004B00000F058F8300200000080FF1F000000002C
:1004C0000000000030020000902500009025000090
:1004D0000484FF1F0484FF1F0484FF1F000000200A
:1004E000DC0000200084FF1F0084FF1F0484FF1F26
:1004F0008C25000090250000000000200000002056
:100500000080FF1F006C002072B60C480C4901608F
:100510000A6882F308880B4880470B48804762B618
:100520000A488047FEE7FEE7FEE7FEE7FEE7FEE754
:10053000FEE7FEE7FEE7FEE7FEE7000008ED00E06D
:100540000000000049200000A52400001504000060
:1005500010B50446AFF300802046BDE81040FFF719
:10056000A3BF704701491820ABBEFEE7260002007A
:1005700080B500F021F900F0B9F800F051FF80BD1E
:1005800080B582B000F09EFD40F2D401C2F20001BD
:100590000020019008704870887040F20800C2F294
:1005A0000000142100F032F8019840F2CC01C2F2B0
:1005B0000001087040F23802C2F2000210600870B8
:1005C00040F21E01C2F20001087040F21C01C2F2AA
:1005D0000001087040F25401C2F20001087040F2BC
:1005E0005501C2F20001087040F22001C2F2000180
:1005F000086040F22401C2F20001086040F21D01CF
:10060000C2F20001087002B080BD000083B0029009
:100610000191002000900090FFE700980199884226
:100620000BD8FFE702990020087002980130029071
:10063000FFE7009801300090EFE703B0704700003B
:1006400080B540F2CC00C2F200000078012808D04A
:10065000FFE740F2CC00C2F200000078022814D17B
:10066000FFE740F21E00C2F20000007804280BD120
:10067000FFE742F2DD33C0F2000300204FF47A714D
:10068000012201F097FCFFE7FFE780BD82B00190F7
:1006900000208DF8030040F2CC00C2F20000007888
:1006A00001280FD1FFE701980078012809DBFFE757
:1006B000019800780C2804DCFFE701208DF8030086
:1006C000FFE70EE001980078002809D4FFE70198C1
:1006D0000078172804DCFFE701208DF80300FFE70E
:1006E000FFE79DF8030002B07047000080B582B0BC
:1006F00040F21C00C2F200000078032837D1FFE767
:1007000040F2D400C2F20000007840F25601C2F27A
:1007100000010978884229D1FFE740F2D400C2F2F3
:100720000000407840F25601C2F200014978884248
:100730001CD1FFE740F2D400C2F20000807840F202
:100740005601C2F20001897888420FD1FFE740F2DA
:100750001D00C2F20000007838B9FFE740F2000146
:10076000C2F2000101200870FFE7FFE7FFE740F257
:100770000000C2F20000007801281AD1FFE740F61D
:100780009573C0F200034FF47A7101220192104672
:1007900001F010FC019840F21D01C2F20001087046
:1007A00000F0F8FB40F20001C2F2000102200870E4
:1007B00000E0FFE702B080BD80B582B000208DF878
:1007C000070040F23800C2F200000068002800F084
:1007D0009F80FFE740F20800C2F2000000785B282B
:1007E00040F08E80FFE740F20800C2F200008079FE
:1007F0005D2808D0FFE740F20800C2F20000407A0E
:100800005D287DD1FFE700208DF80700FFE79DF808
:10081000070040F23801C2F200010968884256D24E
:10082000FFE79DF8071040F20800C2F20000405CAC
:1008300030280ADBFFE79DF8071040F20800C2F2FB
:100840000000405C3A2828DBFFE79DF8071040F2E3
:100850000800C2F20000405C41280ADBFFE79DF877
:10086000071040F20800C2F20000405C5B2814DB75
:10087000FFE79DF8071040F20800C2F20000405C5C
:100880005B280AD0FFE79DF8071040F20800C2F28B
:100890000000405C5D2807D1FFE740F20101C2F291
:1008A0000001012008700BE040F23801C2F20001A3
:1008B0000020086040F20101C2F20001087006E069
:1008C000FFE79DF8070001308DF807009FE740F231
:1008D0000100C2F200000078012810D1FFE700F00B
:1008E00019F8FFF7ADFE40F20101C2F2000100204D
:1008F000087040F23801C2F200010860FFE706E02C
:1009000040F23801C2F2000100200860FFE7FFE773
:1009100002B080BD80B588B000208DF8170003209C
:100920008DF81700FFE79DF81700082812DCFFE795
:100930009DF8172040F20800C2F20000805C3038B9
:100940000DF10D018854FFE79DF8170001308DF877
:100950001700E8E70DF10D000290C11C021D06A86A
:10096000019000F003FD0198029A0130511D0632FA
:1009700000F0FCFC0198029A0230D11D083200F010
:10098000F5FC40F20800C2F20000407853280FD175
:10099000FFE740F20800C2F200008078542807D137
:1009A000FFE740F21E01C2F200010420087089E056
:1009B00040F20800C2F200004078482830D1FFE73A
:1009C00040F20800C2F200008078472828D1FFE7F3
:1009D00040F2CC00C2F200000078012808D0FFE706
:1009E00040F2CC00C2F200000078022817D1FFE7E5
:1009F00006A8FFF74BFE012810D1FFE740F21C01CB
:100A0000C2F200010320087040F25601C2F2000158
:100A1000BDF81C00888006980860FFE7FFE750E0FB
:100A200040F20800C2F20000407841281FD1FFE7E1
:100A300040F20800C2F2000080784D2817D1FFE78D
:100A400006A8FFF723FE012810D1FFE740F2CC01F2
:100A5000C2F200010120087040F2D401C2F200018C
:100A6000BDF81C00888006980860FFE728E040F287
:100A70000800C2F20000407850281FD1FFE740F282
:100A80000800C2F2000080784D2817D1FFE706A8C1
:100A9000FFF7FCFD012810D1FFE740F2CC01C2F2C4
:100AA00000010220087040F2D401C2F20001BDF83A
:100AB0001C00888006980860FFE700E0FFE7FFE77A
:100AC000FFE7FFE708B080BD81B08DF803009DF817
:100AD0000300012809D1FFE745F22811C4F20601FD
:100AE000086840F08040086008E045F22811C4F230
:100AF0000601086820F080400860FFE701B07047F9
:100B000081B08DF803009DF80300012809D1FFE7AB
:100B100045F22C11C4F20601086840F080400860DC
:100B200008E045F22C11C4F20601086820F080406C
:100B30000860FFE701B0704781B08DF803009DF8B1
:100B40000300012809D1FFE745F23011C4F2060184
:100B5000086840F08040086008E045F23011C4F2B7
:100B60000601086820F080400860FFE701B0704788
:100B700083B002908DF807100092029868B9FFE7E1
:100B80004FF21000C4F20F0000689DF80720012109
:100B9000914008400099086042E0029801280DD178
:100BA000FFE74FF25000C4F20F0000689DF80720E5
:100BB0000121914008400099086030E00298022825
:100BC0000DD1FFE74FF29000C4F20F0000689DF8CE
:100BD0000720012191400840009908601EE002981A
:100BE00003280DD1FFE74FF2D000C4F20F000068D8
:100BF0009DF80720012191400840009908600CE011
:100C00004FF21010C4F20F0000689DF80720012178
:100C10009140084000990860FFE7FFE7FFE7FFE722
:100C200003B0704780B582B001200190FFF768FFE4
:100C30000198FFF781FF4CF20003C4F20403186827
:100C400040F4807018604CF23C02C4F20402106858
:100C500040F4807010604CF24001C4F20401086856
:100C600040F480700860186820F002001860106876
:100C700020F002001060086820F0020008604FF2C7
:100C8000D401C4F20F01086840F40040086008680D
:100C900040F480300860086840F0010008604FF2BE
:100CA000C001C4F20F01086840F400400860086801
:100CB00040F480300860086840F0010008604BF2A2
:100CC0003002C4F20402106820F4E06010604BF2BD
:100CD0003401C4F20401086820F4E0600860106880
:100CE00040F480701060086840F4807008601068FC
:100CF00040F002001060086840F0020008601068D0
:100D000020F001001060086820F0010008604FF238
:100D10009401C4F20F01086820F48050086008684C
:100D200020F40050086002B080BD000083B0029043
:100D30008DF8071000920098012854D1FFE702981F
:100D400068B9FFE79DF80710012000FA01F24FF2A1
:100D50000001C4F20F0108681043086042E00298E5
:100D600001280DD1FFE79DF80710012000FA01F2DC
:100D70004FF24001C4F20F0108681043086030E0F0
:100D8000029802280DD1FFE79DF80710012000FA14
:100D900001F24FF28001C4F20F01086810430860AD
:100DA0001EE0029803280DD1FFE79DF807100120EF
:100DB00000FA01F24FF2C001C4F20F0108681043BB
:100DC00008600CE09DF80710012000FA01F24FF2D4
:100DD0000011C4F20F01086810430860FFE7FFE745
:100DE000FFE7FFE753E0029868B9FFE79DF80710B7
:100DF000012000FA01F24FF20001C4F20F0108686D
:100E00009043086042E0029801280DD1FFE79DF869
:100E10000710012000FA01F24FF24001C4F20F0165
:100E200008689043086030E0029802280DD1FFE77F
:100E30009DF80710012000FA01F24FF28001C4F280
:100E40000F010868904308601EE0029803280DD146
:100E5000FFE79DF80710012000FA01F24FF2C001F0
:100E6000C4F20F010868904308600CE09DF8071079
:100E7000012000FA01F24FF20011C4F20F010868DC
:100E800090430860FFE7FFE7FFE7FFE7FFE703B0F6
:100E90007047000080B582B08DF807008DF806100D
:100EA0009DF80600ADF804009DF80710BDF8040099
:100EB00000EB0120ADF8040001A800F0AFFD02B086
:100EC00080BD000080B582B08DF807008DF8061057
:100ED0008DF80520032000F017F8062000F014F824
:100EE0009DF805200120022100F022F89DF806203F
:100EF0000420052100F01CF89DF807200720082198
:100F000000F016F802B080BD80B582B08DF8070001
:100F10000F20ADF804009DF80710BDF8040040EA6A
:100F20000120ADF8040001A800F078FD02B080BDFA
:100F300080B582B08DF807008DF806108DF8052079
:100F400000208DF804008DF803009DF805004CF694
:100F5000CD41CCF6CC41A0FB0132D20802EB82029B
:100F6000A0EB42008DF804009DF80500A0FB0110E5
:100F7000C0088DF803009DF807009DF80410FFF7E6
:100F800089FF9DF806009DF80310FFF783FF02B06C
:100F900080BD000080B588B040F22A00C2F2000097
:100FA0000078C8B9FFE70320069000221146FFF73A
:100FB000BDFE0698102101220792FFF7B7FE0698A2
:100FC000079A0F21FFF7B2FE40F22A01C2F2000198
:100FD0000878013008703BE040F22A00C2F20000BD
:100FE000007801281AD1FFE7032004900021039123
:100FF00001220592FFF79AFE039A04981021FFF749
:1010000095FE0498059A0F21FFF790FE40F22A0101
:10101000C2F2000108780130087018E00320019046
:101020000021029101220092FFF780FE009A0198B0
:101030001021FFF77BFE0198029A0F21FFF776FE41
:10104000029840F22A01C2F200010870FFE7FFE7B0
:1010500008B080BD80B586B0032003900F210491B5
:1010600000220292FFF762FEC820019000F0D0F843
:101070000398049901220592FFF758FE019800F0A9
:10108000C7F8029A03980499FFF750FE019800F000
:10109000BFF803980499059AFFF748FE019800F0FD
:1010A000B7F8029A03980499FFF740FE4FF47A705C
:1010B00000F0AEF803980499059AFFF737FE06B0E2
:1010C00080BD000080B5FFF7ADFD80BD80B582B06A
:1010D0008DF8070040F22B00C2F200000078A8B99A
:1010E000FFE79DF80700FFF70FFF40F2C400C2F2D0
:1010F0000000006840F22C01C2F20001086040F2DA
:101100002B01C2F200010120087066E040F22B00C2
:10111000C2F20000007801283DD1FFE740F2C40090
:10112000C2F20000006840F22C01C2F2000109681E
:10113000401AB0F5FA7F2DD3FFE740F25400C2F217
:101140000000007801280AD1FFE740F2D402C2F281
:101150000002107851789278FFF7B4FE09E040F26F
:101160005602C2F20002107851789278FFF7AAFE78
:10117000FFE740F2C400C2F20000006840F22C0118
:10118000C2F20001086040F22B01C2F2000102200D
:101190000870FFE720E040F2C400C2F200000068DF
:1011A00040F22C01C2F200010968401AB0F5FA7F42
:1011B00011D3FFE740F2C400C2F20000006840F221
:1011C0002C01C2F20001086040F22B01C2F20001C2
:1011D00000200870FFE7FFE7FFE702B080BD0000D6
:1011E00047F20C01C4F20301086840F001000860F6
:1011F00040F20401C2F2000108680130086040F2C8
:10120000C401C2F2000108680130086070470000A4
:1012100081B00090FFE740F20400C2F200000068D5
:101220000099884201D2FFE7F5E740F20401C2F2DB
:1012300000010020086001B07047000081B08DF807
:1012400003008DF8021045F2DC01C4F206010868C3
:1012500020F0E06008609DF80200012809D1FFE756
:1012600045F2DC01C4F20601086840F080700860B5
:101270002DE09DF80200022809D1FFE745F2DC01CC
:10128000C4F20601086840F0007008601EE09DF896
:101290000200032809D1FFE745F2DC01C4F2060190
:1012A000086840F0407008600FE09DF802000428D4
:1012B00009D1FFE745F2DC01C4F20601086840F0FD
:1012C000C060086000E0FFE7FFE7FFE7FFE79DF889
:1012D0000300012809D1FFE745F2DC01C4F2060151
:1012E000086840F08040086008E045F2DC01C4F284
:1012F0000601086820F080400860FFE701B07047F1
:1013000080B584B003900020029001200090042159
:10131000FFF794FF009947F20800C4F20300016050
:1013200047F21000C4F203000160039847F2200264
:10133000C4F2030210603020019000F08DF9019892
:1013400000F056F9019800F06DF9029840F00100A4
:101350000290029847F22801C4F20301086004B029
:1013600080BD000080B500F0CDFF80BD83B002904D
:10137000019100920198007800EB800100980078BC
:1013800000EB41000299087003B0704782B000F092
:1013900007FA02210191084600F056FB019B042048
:1013A0000122114600F0A6F900F052FD00F058FFAE
:1013B00000F0CAFA4EF66020FFF7A2FF00F0F2F844
:1013C000FFF7DEF8FFE740F22002C2F2000202203F
:1013D00000900C21FFF7CCFB009840F22402C2F2EF
:1013E00000020D21FFF7C4FB00F034FF04280CD1EC
:1013F000FFE740F20800C2F2000000F0CFFE40F22A
:101400003801C2F20001086002E0FFF7B1F8FFE71F
:1014100000F06AFD00F0A0FF0220FFF7F9FED2E71E
:1014200080B584B040F25400C2F20000007818B9D0
:10143000FFE700F06BFCFFE740F25400C2F200004F
:10144000007801285CD1FFE740F23C00C2F20000C6
:10145000007850B9FFE7002000F0DEFD40F23C01CB
:10146000C2F200010120087049E040F23C00C2F2E3
:1014700000000078012823D1FFE748F20040C1F6C0
:10148000FF7003900078FFF721FE039940F2D4002B
:10149000C2F2000000F05AFB012810D1FFE740F231
:1014A0005500C2F200000078032807D1FFE740F2A0
:1014B0003C01C2F2000102200870FFE7FFE71DE0D7
:1014C00042F2DD33C0F20003002002904FF47A7143
:1014D0000122019200F06EFD0199029840F254023F
:1014E000C2F20002107048F20042C1F6FF721170A1
:1014F00040F23C01C2F200010870FFE7FFE74FE055
:1015000040F25400C2F20000007802283DD1FFE70B
:1015100040F23C00C2F20000007818BBFFE748F23E
:101520000040C1F6FF7000900078FFF7CFFD0099F2
:1015300040F25600C2F2000000F008FB012810D172
:10154000FFE740F25500C2F200000078032807D1FF
:10155000FFE740F23C01C2F2000101200870FFE702
:10156000FFE711E040F25401C2F2000100200870D0
:1015700048F20042C1F6FF720121117040F23C01B5
:10158000C2F200010870FFE709E040F2D402C2F2A3
:101590000002107851789278FFF794FCFFE7FFE79C
:1015A00004B080BD80B582B00020ADF8060040F6E2
:1015B0000120ADF806000DF10600009000F02EFAB3
:1015C000009840F60731ADF8061000F027FA0098B1
:1015D00040F60141ADF8061000F020FA009840F600
:1015E000FF11ADF8061000F019FA02B080BD00003E
:1015F00081B08DF803009DF9031001EBD16020F05C
:101600001F028A1A012101FA02F342114EF28021CF
:10161000CEF2000151F82200184341F8220001B037
:101620007047000081B08DF803009DF9031001EBB5
:10163000D16020F01F028A1A012101FA02F342113F
:101640004EF20011CEF2000151F82200184341F889
:10165000220001B07047000081B08DF803008DF8C2
:1016600002109DF802009DF9032002EB927121F017
:101670000301521AD200043200FA02F34EF2004281
:10168000CEF2000288581843885001B0704700001D
:101690004BF23000C4F204000068C00100280FD5EE
:1016A000FFE74BF23001C4F20401086840F080709B
:1016B000086040F28401C2F2000101200870FFE7D7
:1016C0004BF23400C4F204000068C00100280FD5BA
:1016D000FFE74BF23401C4F20401086840F0807067
:1016E000086040F28401C2F2000102200870FFE7A6
:1016F0007047000082B08DF807008DF806108DF855
:1017000005208DF80430002000909DF80700012886
:1017100005D1FFE7009840F0807000901AE09DF836
:101720000700022805D1FFE7009840F00070009004
:101730000FE09DF80700042805D1FFE7009840F06E
:10174000C060009004E0009840F040700090FFE717
:10175000FFE7FFE79DF80610009840EA014000907F
:101760009DF80510009840EA011000909DF80410C3
:10177000009808430090009844F21401C4F2060156
:101780000860FFE744F21000C4F20600016806207A
:10179000B0EB116F01D0FFE7F4E702B07047000033
:1017A00083B00020029001900090029840F0010068
:1017B0000290029840F480700290029844F2041162
:1017C000C4F206010860019840F0200001900198E1
:1017D00020F008000190019840F004000190019869
:1017E00044F20811C4F206010860009840F00100BC
:1017F0000090009844F20011C4F206010860FFE76F
:1018000044F20010C4F206000068C001002801D4B0
:10181000FFE7F5E703B0704781B08DF803008DF85E
:10182000021045F2B401C4F20601086820F0E0603D
:1018300008609DF80200012809D1FFE745F2B401D4
:10184000C4F20601086840F0807008602DE09DF841
:101850000200022809D1FFE745F2B401C4F20601F3
:10186000086840F0007008601EE09DF80200032840
:1018700009D1FFE745F2B401C4F20601086840F05F
:10188000407008600FE09DF80200042809D1FFE7CE
:1018900045F2B401C4F20601086840F0C060086077
:1018A00000E0FFE7FFE7FFE7FFE79DF803000128FF
:1018B00009D1FFE745F2B401C4F20601086840F01F
:1018C0008040086008E045F2B401C4F206010868EF
:1018D00020F080400860FFE701B0704780B501202C
:1018E000FFF7F2F84AF23801C4F20401086820F464
:1018F000E0600860086840F4407008604AF23C010B
:10190000C4F20401086820F4E0600860086840F44C
:10191000407008604AF24001C4F20401086820F4F3
:10192000E0600860086840F4407008604AF24401D2
:10193000C4F20401086820F4E0600860086840F41C
:101940004070086080BD000080B582B0002000902B
:101950000190FFF7C3FF01200421FFF75DFF00980E
:101960004DF21001C4F2020102220A6008604DF239
:101970001802C4F2020210604DF21C02C4F202020C
:1019800010604DF22002C4F2020210604DF24002DB
:10199000C4F20202106840F080601060106840F4E9
:1019A00080201060106840F00D001060019840F039
:1019B00040700190019820F000400190019820F0C3
:1019C00080400190019840F00F000190019840F094
:1019D0008050019001984DF26002C4F20202106042
:1019E0004DF25802C4F20202106840F00300106089
:1019F0004DF22402C4F20202106840F008001060A8
:101A0000086840F008000860106840F001001060AD
:101A1000086840F00100086002B080BD81B000900D
:101A2000FFE74DF21400C4F202000068C00708B9D5
:101A3000FFE7F6E7009800884DF26401C4F2020166
:101A4000086001B07047000084B08DF80F008DF879
:101A50000E100020029001900090009844F2006166
:101A6000C4F206010860FFE744F20060C4F2060019
:101A700000680002002801D5FFE7F5E79DF80F0098
:101A800030B1FFE79DF80F10029808430290FFE77E
:101A90009DF80E0038B1FFE79DF80E10029840EA5D
:101AA00001200290FFE7029844F20461C4F20601AB
:101AB0000860019820F001000190019820F4706006
:101AC0000190019840F460200190019844F208616F
:101AD000C4F206010860FFE744F20060C4F20600A9
:101AE00000680002002801D5FFE7F5E7009840F004
:101AF00001000090009844F20061C4F20601086001
:101B0000FFE744F20060C4F206000068C00100284C
:101B100001D4FFE7F5E704B07047000080B582B05C
:101B200003200090002101220192FFF7FFF80098A6
:101B3000019A1021FFF7FAF80098019A0F21FFF798
:101B4000F5F8019800F068FA02B080BD80B584B065
:101B50000390029100208DF8070040F22000C2F2AD
:101B60000000006820B3FFE740F22400C2F200004A
:101B70000068E8B1FFE740F2C400C2F2000000686C
:101B800040F24801C2F200010968401A40F6B8313B
:101B900088420CD3FFE7FFF75DFA01208DF80700BC
:101BA00040F25501C2F2000103200870FFE7A9E0EE
:101BB00040F2C400C2F20000006840F24801C2F2E4
:101BC0000001086040F22000C2F20000006840F20C
:101BD0004001C2F200010968884221D0FFE740F2CB
:101BE0002000C2F20000006878B1FFE70298007898
:101BF000072804DBFFE702990120087004E002993E
:101C0000087803300870FFE7FFE740F22000C2F2D7
:101C10000000006840F24001C2F200010860FFE7E6
:101C200040F22400C2F20000006840F24401C2F217
:101C300000010968884264D0FFE740F22400C2F244
:101C400000000068002851D0FFE7029800780128C2
:101C50000FD1FFE7039880783B2804DBFFE7039967
:101C60000020887004E00399887801308870FFE7CD
:101C70003BE00298007804280FD1FFE703984078F2
:101C80003B2804DBFFE703990020487004E0039938
:101C9000487801304870FFE726E040F2CC00C2F2FD
:101CA0000000007801280FD1FFE7039800780C2886
:101CB00004DBFFE703990120087004E0039908782A
:101CC00001300870FFE70EE003980078172804DB66
:101CD000FFE703990020087004E0039908780130B9
:101CE0000870FFE7FFE7FFE7FFE7FFE740F22400A8
:101CF000C2F20000006840F24401C2F20001086034
:101D0000FFE7FFE79DF8070004B080BD80B540F213
:101D10001E00C2F200000078042840F09780FFE720
:101D200040F22000C2F200000068A0B3FFE740F2DA
:101D3000C400C2F20000006840F24C01C2F200018F
:101D40000968401A40F6B831884211D3FFE7FFF71F
:101D500081F940F25400C2F20000007838B9FFE780
:101D600040F25401C2F2000101200870FFE711E0C7
:101D700040F21D00C2F200000078012809D1FFE7FF
:101D8000FFF7CCFE40F21D01C2F2000100200870F6
:101D9000FFE7FFE70AE040F2C400C2F2000000687B
:101DA00040F24C01C2F200010860FFE740F224005B
:101DB000C2F200000068E8B3FFE740F2C400C2F2DC
:101DC0000000006840F25001C2F200010968401AA8
:101DD00040F6B83188421AD3FFE7FFF73BF940F2EB
:101DE0005400C2F20000007880B9FFE740F25401CD
:101DF000C2F200010220087040F25602C2F2000254
:101E0000107851789278FFF75DF8FFE711E040F223
:101E10001D00C2F200000078012809D1FFE7FFF79A
:101E20007DFE40F21D01C2F2000100200870FFE7B4
:101E3000FFE70AE040F2C400C2F20000006840F28E
:101E40005001C2F200010860FFE7FFE780BD00001B
:101E500081B0002000900090FFE70098022827DC66
:101E6000FFE7009800EB800240F28801C2F2000117
:101E7000002041F82200009A02EB820201EB82026C
:101E80001071009A02EB820201EB82029060009ACC
:101E900002EB820201EB82021061009A02EB8202E5
:101EA00001EB8201C860FFE7009801300090D4E7A1
:101EB00040F2C801C2F20001002008604EF2140294
:101EC000CEF200024EF65F2111604EF21801CEF202
:101ED000000108604EF21001CEF20001086840F0E7
:101EE0000300086001B0704780B582B00020019007
:101EF000FFE7019802285ADCFFE7019800EB800118
:101F000040F28800C2F2000000EB810080680028E7
:101F100048D0FFE740F2C800C2F200000068019913
:101F200001EB810240F28801C2F2000101EB820262
:101F30009168D268801A884233D3FFE7019800EB9A
:101F4000800140F28800C2F2000000EB81000079BD
:101F5000012819D1FFE7019800EB800140F28800C9
:101F6000C2F20000009000EB8100006980470099F8
:101F700040F2C800C2F200000068019A02EB82023F
:101F800001EB8201C8600BE0019800EB800140F298
:101F90008800C2F2000000EB810000698047FFE783
:101FA000FFE7FFE7FFE7019801300190A1E702B0EA
:101FB00080BD000084B0039002918DF8072000934B
:101FC000039800EB800240F28801C2F2000141F860
:101FD00022009DF80700039A02EB820201EB8202C5
:101FE00010710298039A02EB820201EB8202906068
:101FF0000098039A02EB820201EB8202106140F228
:10200000C800C2F200000068039A02EB820201EBF2
:102010008201C86004B0704781B00090009800EB66
:10202000800140F28800C2F2000000EB8101002034
:10203000886001B07047000040F2C801C2F20001A0
:1020400008680130086070474EF68851CEF20001F2
:10205000086840F4700008604EF63471CEF200015A
:10206000086820F08040086042F20400C4F20500D5
:102070004CF22051CDF628110160006842F20001B7
:10208000C4F2050142F22010086042F20801C4F2D5
:1020900005014FF6FF7008607047000081B08DF8B1
:1020A00003008DF8021045F2AC11C4F20601086875
:1020B00020F0E06008609DF80200012809D1FFE7E8
:1020C00045F2AC11C4F20601086840F08070086067
:1020D0002DE09DF80200022809D1FFE745F2AC117E
:1020E000C4F20601086840F0007008601EE09DF828
:1020F0000200032809D1FFE745F2AC11C4F2060142
:10210000086840F0407008600FE09DF80200042865
:1021100009D1FFE745F2AC11C4F20601086840F0AE
:10212000C060086000E0FFE7FFE7FFE7FFE79DF81A
:102130000300012809D1FFE745F2AC11C4F2060102
:10214000086840F08040086008E045F2AC11C4F235
:102150000601086820F080400860FFE701B0704782
:1021600080B50120FEF7CCFC4BF21801C4F204014B
:10217000086820F4E0600860086840F400700860B7
:102180004BF21C01C4F20401086820F4E06008600E
:10219000086840F40070086080BD000081B00090C5
:1021A00040F23D00C2F20000007804284BD1FFE766
:1021B00040F22800C2F20000007840F22901C2F289
:1021C0000001097888422AD0FFE740F22800C2F2D5
:1021D0000000027840F25C01C2F20001895C009BC1
:1021E00040F2CE02C2F2000292F800C003F80C10D6
:1021F0001178013111700078132807D3FFE740F2FE
:102200002801C2F200010020087007E040F2280116
:10221000C2F20001087801300870FFE712E040F2D6
:10222000CE01C2F20001087840F23002C2F2000290
:1022300010600020087040F23D01C2F2000103204E
:102240000870FFE7FFE740F23000C2F200000068CC
:1022500001B0704740F23D00C2F2000000787047C4
:1022600080B586B00020019005900490FFF778FFBC
:10227000012103910846FFF711FF0199059820F00D
:1022800000500590059840F070600590059840F06A
:1022900034000590059820F40050059005984BF205
:1022A0001002C4F206021060049820F4006004904A
:1022B000049820F010000490049840F4001004905A
:1022C000049840F44020049004984BF21802C4F2A1
:1022D0000602106021200290FFF7BEF90298FFF776
:1022E00087F90298FFF79EF9039840F2CD01C2F2F8
:1022F0000001087040F23D01C2F2000103200870A5
:1023000006B080BD4BF21C00C4F20600016840F22A
:102310002900C2F20000037840F25C02C2F200021F
:10232000D1540078132807D3FFE740F22901C2F205
:1023300000010020087007E040F22901C2F200010C
:10234000087801300870FFE740F23D01C2F2000159
:10235000042008707047000040F2CD00C2F2000077
:102360000078022838D1FFE74BF21400C4F20600CF
:1023700000680002002821D5FFE740F23400C2F2D5
:1023800000000068D0B1FFE740F2D001C2F20001C6
:102390000A6840F27000C2F20000805C4BF21C023E
:1023A000C4F20602106008680130086040F234018F
:1023B000C2F200010868013808600CE040F2D00168
:1023C000C2F200010020086040F2CD01C2F200011B
:1023D00001200870FFE7FFE77047000040F2D400DB
:1023E000C2F2000080783B2852DBFFE740F2D400C5
:1023F000C2F200000021817040783B283FDBFFE7FC
:1024000040F2D401C2F200010020487040F2CC003A
:10241000C2F200000078012818D1FFE740F2D40092
:10242000C2F2000000780C2807DBFFE740F2D4017D
:10243000C2F200010120087007E040F2D401C2F2AC
:102440000001087801300870FFE717E040F2D4007F
:10245000C2F200000078172807DBFFE740F2D40142
:10246000C2F200010020087007E040F2D401C2F27D
:102470000001087801300870FFE7FFE707E040F24D
:10248000D401C2F20001487801304870FFE707E04C
:1024900040F2D401C2F20001887801308870FFE771
:1024A0007047000085B040F2B440C0F20000006800
:1024B000029040F2BC40C0F200000068019040F27F
:1024C000B840C0F200000068009000208DF80F00B6
:1024D00000980199884224D0FFE700200490FFE78C
:1024E00004980299B0EB910F0CD2FFE70198049A7F
:1024F00050F82200009941F82200FFE704980130CB
:102500000490EDE740F2B840C0F2000000689DF88A
:102510000F2040F21041C0F2000151F82210086073
:102520000EE040F2BC40C0F2000000689DF80F20B1
:1025300040F21041C0F2000151F822100860FFE79C
:1025400005B0704780B582B000200190FEF71EFFF5
:10255000F1EE100A4FF6FF71C0F2C03120EA01001F
:1025600040F04070E1EE100A704700008C2500003A
:102570000084FF1F040000005004000090250000AC
:1025800000000020DC0000006C04000001000000DE
:0400000500000415DE
:00000001FF
