:020000040000FA
:1000000000700020090500002505000027050000FC
:10001000290500002B0500002D0500000000000050
:100020000000000000000000000000002F0500009C
:100030003105000000000000330500000D22000023
:1000400039050000390500003905000039050000B8
:1000500039050000390500003905000039050000A8
:100060003905000039050000390500003905000098
:100070003905000039050000390500003905000088
:100080003905000039050000390500003905000078
:100090003905000039050000390500003905000068
:1000A0003905000039050000390500003905000058
:1000B0003905000039050000390500003905000048
:1000C00039050000A51400003905000039050000BD
:1000D0003905000039050000390500003905000028
:1000E0003905000039050000390500003905000018
:1000F0003905000039050000390500003905000008
:100100002113000039050000390500003905000001
:1001100039050000390500003905000039050000E7
:1001200039050000390500003905000039050000D7
:1001300039050000311800003905000039050000BC
:1001400039050000390500003905000039050000B7
:1001500039050000390500003905000039050000A7
:100160003905000039050000390500003905000097
:100170003905000039050000390500003905000087
:100180003905000039050000390500003905000077
:100190003905000039050000390500003905000067
:1001A0003905000039050000390500003905000057
:1001B0003905000039050000390500003905000047
:1001C0003905000039050000390500003905000037
:1001D0003905000039050000390500003905000027
:1001E0003905000039050000390500003905000017
:1001F0003905000039050000390500003905000007
:1002000039050000390500003905000039050000F6
:1002100039050000390500003905000039050000E6
:1002200039050000390500003905000037050000D8
:1002300000000000000000000000000000000000BE
:1002400000000000000000000000000000000000AE
:10025000000000000000000000000000000000009E
:10026000000000000000000000000000000000008E
:10027000000000000000000000000000000000007E
:10028000000000000000000000000000000000006E
:10029000000000000000000000000000000000005E
:1002A000000000000000000000000000000000004E
:1002B000000000000000000000000000000000003E
:1002C000000000000000000000000000000000002E
:1002D000000000000000000000000000000000001E
:1002E000000000000000000000000000000000000E
:1002F00000000000000000000000000000000000FE
:1003000000000000000000000000000000000000ED
:1003100000000000000000000000000000000000DD
:1003200000000000000000000000000000000000CD
:1003300000000000000000000000000000000000BD
:1003400000000000000000000000000000000000AD
:10035000000000000000000000000000000000009D
:10036000000000000000000000000000000000008D
:10037000000000000000000000000000000000007D
:10038000000000000000000000000000000000006D
:10039000000000000000000000000000000000005D
:1003A000000000000000000000000000000000004D
:1003B000000000000000000000000000000000003D
:1003C000000000000000000000000000000000002D
:1003D000000000000000000000000000000000001D
:1003E000000000000000000000000000000000000D
:1003F00000000000000000000000000000000000FD
:10040000FFFFFFFFFFFFFFFFFFFFFFFFFEFFFFFFFD
:1004100008ED00E000F002F800F03CF80AA090E8D7
:10042000000C82448344AAF10107DA4501D100F0AF
:1004300031F8AFF2090EBAE80F0013F0010F18BF40
:10044000FB1A43F0010318477423000094230000B3
:10045000103A24BF78C878C1FAD8520724BF30C8F0
:1004600030C144BF04680C607047000000230024C2
:1004700000250026103A28BF78C1FBD8520728BFB4
:1004800030C148BF0B6070471FB502F089F91FBD2E
:1004900010B510BDDFF80CD0FFF7F6FF02F07AF9C7
:1004A00000F056F80070002003B4FFF7F1FF03BC22
:1004B00000F058F8300200000080FF1F000000002C
:1004C0000000000030020000E8270000E8270000DC
:1004D0000C84FF1F0C84FF1F0C84FF1F00000020F2
:1004E000CC0100200084FF1F0084FF1F0C84FF1F2D
:1004F000DC270000E82700000000002000000020AA
:100500000080FF1F006C002072B60C480C4901608F
:100510000A6882F308880B4880470B48804762B618
:100520000A488047FEE7FEE7FEE7FEE7FEE7FEE754
:10053000FEE7FEE7FEE7FEE7FEE7000008ED00E06D
:10054000000000001D220000F52600001504000038
:1005500010B50446AFF300802046BDE81040FFF719
:10056000A3BF704701491820ABBEFEE7260002007A
:1005700080B500F061F900F0F9F801F003F880BDF2
:1005800080B582B000F03EFE40F2C411C2F200011C
:100590000020019008704870887040F20800C2F294
:1005A0000000642100F032F8019840F2BC11C2F260
:1005B0000001087040F28802C2F200021060087068
:1005C00040F26E01C2F20001087040F26C01C2F20A
:1005D0000001087040F2A401C2F20001087040F26C
:1005E000A501C2F20001087040F27001C2F20001E0
:1005F000086040F27401C2F20001086040F26D012F
:10060000C2F20001087002B080BD000083B0029009
:100610000191002000900090FFE700980199884226
:100620000BD8FFE702990020087002980130029071
:10063000FFE7009801300090EFE703B0704700003B
:1006400080B540F2BC10C2F200000078012808D04A
:10065000FFE740F2BC10C2F200000078022814D17B
:10066000FFE740F26E00C2F20000007804280BD1D0
:10067000FFE742F22D63C0F2000300204FF47A71CD
:10068000012201F081FDFFE7FFE780BD82B001900C
:1006900000208DF803008DF8020003208DF8030080
:1006A000FFE79DF8030008281ADCFFE701989DF892
:1006B0000310405C30280BDBFFE701989DF8031026
:1006C000405C392804DCFFE701208DF8020000E0DF
:1006D00006E0FFE79DF8030001308DF80300E0E736
:1006E0009DF8020002B0704782B0019000208DF8A2
:1006F000030040F2BC10C2F20000007801281BD1B8
:10070000FFE701980078012815DBFFE701980078E2
:100710000C2810DCFFE7019840783B280ADCFFE753
:10072000019880783B2804DCFFE701208DF8030066
:10073000FFE7FFE7FFE715E001980078172810DCD6
:10074000FFE7019840783B280ADCFFE701988078B2
:100750003B2804DCFFE701208DF80300FFE7FFE7FB
:10076000FFE7FFE79DF8030002B0704780B582B055
:1007700040F26C00C2F200000078032837D1FFE796
:1007800040F2C410C2F20000007840F2A601C2F2AA
:1007900000010978884229D1FFE740F2C410C2F273
:1007A0000000407840F2A601C2F200014978884278
:1007B0001CD1FFE740F2C410C2F20000807840F282
:1007C000A601C2F20001897888420FD1FFE740F20A
:1007D0006D00C2F20000007838B9FFE740F2000176
:1007E000C2F2000101200870FFE7FFE7FFE740F2D7
:1007F0000000C2F20000007801281AD1FFE741F2A0
:10080000D503C0F200034FF47A7101220192104621
:1008100001F0BAFC019840F26D01C2F200010870CB
:1008200000F058FC40F20001C2F200010220087002
:1008300000E0FFE702B080BD80B582B000208DF8F7
:10084000070040F28800C2F200000068002800F0B3
:100850009F80FFE740F20800C2F2000000785B28AA
:1008600040F08E80FFE740F20800C2F2000080797D
:100870005D2808D0FFE740F20800C2F20000407A8D
:100880005D287DD1FFE700208DF80700FFE79DF888
:10089000070040F28801C2F200010968884256D27E
:1008A000FFE79DF8071040F20800C2F20000405C2C
:1008B00030280ADBFFE79DF8071040F20800C2F27B
:1008C0000000405C3A2828DBFFE79DF8071040F263
:1008D0000800C2F20000405C41280ADBFFE79DF8F7
:1008E000071040F20800C2F20000405C5B2814DBF5
:1008F000FFE79DF8071040F20800C2F20000405CDC
:100900005B280AD0FFE79DF8071040F20800C2F20A
:100910000000405C5D2807D1FFE740F20101C2F210
:100920000001012008700BE040F28801C2F20001D2
:100930000020086040F20101C2F20001087006E0E8
:10094000FFE79DF8070001308DF807009FE740F2B0
:100950000100C2F200000078012810D1FFE700F08A
:1009600019F8FFF76DFE40F20101C2F2000100200C
:10097000087040F28801C2F200010860FFE706E05B
:1009800040F28801C2F2000100200860FFE7FFE7A3
:1009900002B080BD80B588B000208DF8170003201C
:1009A0008DF81700FFE79DF81700082812DCFFE715
:1009B0009DF8172040F20800C2F20000805C303839
:1009C0000DF10D018854FFE79DF8170001308DF8F7
:1009D0001700E8E70DF10D000290C11C021D06A8EA
:1009E000019000F063FD0198029A0130511D06321A
:1009F00000F05CFD0198029A0230D11D083200F02F
:100A000055FD40F20800C2F20000407853280FD193
:100A1000FFE740F20800C2F200008078542807D1B6
:100A2000FFE740F26E01C2F200010420087094E07A
:100A300040F20800C2F20000FFF728FE012840F053
:100A40008B80FFE740F20800C2F20000407848289F
:100A500030D1FFE740F20800C2F20000807847285A
:100A600028D1FFE740F2BC10C2F200000078012854
:100A700008D0FFE740F2BC10C2F200000078022864
:100A800017D1FFE706A8FFF72FFE012810D1FFE7D7
:100A900040F26C01C2F200010320087040F2A6018E
:100AA000C2F20001BDF81C00888006980860FFE7CC
:100AB000FFE750E040F20800C2F200004078412811
:100AC0001FD1FFE740F20800C2F2000080784D28F5
:100AD00017D1FFE740F2BC11C2F2000101200870FB
:100AE00006A8FFF701FE01280AD1FFE740F2C41172
:100AF000C2F20001BDF81C00888006980860FFE77C
:100B000028E040F20800C2F20000407850281FD1CF
:100B1000FFE740F20800C2F2000080784D2817D1AC
:100B2000FFE740F2BC11C2F200010220087006A8E3
:100B3000FFF7DAFD01280AD1FFE740F2C411C2F243
:100B40000001BDF81C00888006980860FFE700E0FF
:100B5000FFE7FFE7FFE7FFE7FFE708B080BD000022
:100B600081B08DF803009DF80300012809D1FFE74B
:100B700045F22811C4F20601086840F08040086080
:100B800008E045F22811C4F20601086820F0804010
:100B90000860FFE701B0704781B08DF803009DF851
:100BA0000300012809D1FFE745F22C11C4F2060128
:100BB000086840F08040086008E045F22C11C4F25B
:100BC0000601086820F080400860FFE701B0704728
:100BD00081B08DF803009DF80300012809D1FFE7DB
:100BE00045F23011C4F20601086840F08040086008
:100BF00008E045F23011C4F20601086820F0804098
:100C00000860FFE701B0704783B002908DF80710CD
:100C10000092029868B9FFE74FF21000C4F20F008B
:100C200000689DF807200121914008400099086064
:100C300042E0029801280DD1FFE74FF25000C4F2C4
:100C40000F0000689DF8072001219140084000999D
:100C5000086030E0029802280DD1FFE74FF29000C3
:100C6000C4F20F0000689DF8072001219140084060
:100C7000009908601EE0029803280DD1FFE74FF2AB
:100C8000D000C4F20F0000689DF8072001219140B8
:100C90000840009908600CE04FF21010C4F20F00F9
:100CA00000689DF8072001219140084000990860E4
:100CB000FFE7FFE7FFE7FFE703B0704780B582B0CB
:100CC00001200190FFF768FF0198FFF781FF4CF2C8
:100CD0000003C4F20403186840F4807018604CF2FA
:100CE0003C02C4F20402106840F4807010604CF2C0
:100CF0004001C4F20401086840F48070086018687C
:100D000020F002001860106820F0020010600868EF
:100D100020F0020008604FF2D401C4F20F0108680D
:100D200040F400400860086840F4803008600868BB
:100D300040F0010008604FF2C001C4F20F010868E2
:100D400040F400400860086840F48030086008689B
:100D500040F0010008604BF23002C4F20402106857
:100D600020F4E06010604BF23401C4F20401086822
:100D700020F4E0600860106840F48070106008683B
:100D800040F480700860106840F00200106008684D
:100D900040F002000860106820F001001060086850
:100DA00020F0010008604FF29401C4F20F010868BE
:100DB00020F480500860086820F40050086002B0F9
:100DC00080BD000083B002908DF80710009200985B
:100DD000012854D1FFE7029868B9FFE79DF8071092
:100DE000012000FA01F24FF20001C4F20F0108687D
:100DF0001043086042E0029801280DD1FFE79DF8FA
:100E00000710012000FA01F24FF24001C4F20F0175
:100E100008681043086030E0029802280DD1FFE70F
:100E20009DF80710012000FA01F24FF28001C4F290
:100E30000F010868104308601EE0029803280DD1D6
:100E4000FFE79DF80710012000FA01F24FF2C00100
:100E5000C4F20F010868104308600CE09DF8071009
:100E6000012000FA01F24FF20011C4F20F010868EC
:100E700010430860FFE7FFE7FFE7FFE753E0029852
:100E800068B9FFE79DF80710012000FA01F24FF260
:100E90000001C4F20F0108689043086042E0029824
:100EA00001280DD1FFE79DF80710012000FA01F29B
:100EB0004FF24001C4F20F0108689043086030E02F
:100EC000029802280DD1FFE79DF80710012000FAD3
:100ED00001F24FF28001C4F20F01086890430860EC
:100EE0001EE0029803280DD1FFE79DF807100120AE
:100EF00000FA01F24FF2C001C4F20F0108689043FA
:100F000008600CE09DF80710012000FA01F24FF292
:100F10000011C4F20F01086890430860FFE7FFE783
:100F2000FFE7FFE7FFE703B07047000080B582B03E
:100F30008DF807008DF8061000208DF805009DF84B
:100F40000600ADF802009DF80710BDF8020000EBA6
:100F50000120ADF802000DF1020000F02FFE012883
:100F600004D1FFE701208DF80500FFE79DF805009B
:100F700002B080BD80B582B08DF807008DF80610F4
:100F80008DF8052000208DF8040003200A21FFF7CA
:100F9000CDFF012804D1FFE701208DF80400FFE711
:100FA00006200A21FFF7C2FF012804D1FFE7012034
:100FB0008DF80400FFE79DF805200120022100F0D4
:100FC00045F8012804D1FFE701208DF80400FFE770
:100FD0009DF806200420052100F038F8012804D1EE
:100FE000FFE701208DF80400FFE79DF807200720A8
:100FF000082100F02BF8012804D1FFE701208DF82B
:101000000400FFE79DF8040002B080BD80B582B007
:101010008DF8070000208DF806000F20ADF80400C1
:101020009DF80710BDF8040040EA0120ADF8040067
:1010300001A800F0C3FD012804D1FFE701208DF8CD
:101040000600FFE79DF8060002B080BD80B582B0C3
:101050008DF807008DF806108DF8052000208DF81A
:1010600004008DF803008DF802009DF805004CF691
:10107000CD41CCF6CC41A0FB0132D20802EB82027A
:10108000A0EB42008DF803009DF80500A0FB0110C5
:10109000C0088DF802009DF807009DF80310FFF7C7
:1010A00045FF012804D1FFE701208DF80400FFE788
:1010B0009DF806009DF80210FFF738FF012804D1C3
:1010C000FFE701208DF80400FFE79DF8040002B05F
:1010D00080BD000080B588B040F27A00C2F2000006
:1010E0000078C8B9FFE70320069000221146FFF7F9
:1010F00069FE0698102101220792FFF763FE069809
:10110000079A0F21FFF75EFE40F27A01C2F200015A
:101110000878013008703BE040F27A00C2F200002B
:10112000007801281AD1FFE70320049000210391E1
:1011300001220592FFF746FE039A04981021FFF75B
:1011400041FE0498059A0F21FFF73CFE40F27A0118
:10115000C2F2000108780130087018E00320019005
:101160000021029101220092FFF72CFE009A0198C3
:101170001021FFF727FE0198029A0F21FFF722FEA8
:10118000029840F27A01C2F200010870FFE7FFE71F
:1011900008B080BD80B586B0032003900F21049174
:1011A00000220292FFF70EFEC820019000F032F9F3
:1011B0000398049901220592FFF704FE019800F0BC
:1011C00029F9029A03980499FFF7FCFD019800F0B1
:1011D00021F903980499059AFFF7F4FD019800F0AE
:1011E00019F9029A03980499FFF7ECFD4FF47A700D
:1011F00000F010F903980499059AFFF7E3FD06B093
:1012000080BD000080B5FFF759FD80BD80B582B07C
:101210008DF8070040F27B00C2F200000078A8B908
:10122000FFE79DF80700FFF7F1FE40F2B410C2F2AD
:101230000000006840F27C01C2F20001086040F248
:101240007B01C2F200010120087066E040F27B00E1
:10125000C2F20000007801283DD1FFE740F2B4104F
:10126000C2F20000006840F27C01C2F2000109688D
:10127000401AB0F5FA7F2DD3FFE740F2A400C2F286
:101280000000007801280AD1FFE740F2C412C2F240
:101290000002107851789278FFF76CFE09E040F276
:1012A000A602C2F20002107851789278FFF762FE2F
:1012B000FFE740F2B410C2F20000006840F27C0187
:1012C000C2F20001086040F27B01C2F2000102207C
:1012D0000870FFE720E040F2B410C2F2000000689E
:1012E00040F27C01C2F200010968401AB0F5FA7FB1
:1012F00011D3FFE740F2B410C2F20000006840F2E0
:101300007C01C2F20001086040F27B01C2F20001E0
:1013100000200870FFE7FFE7FFE702B080BD000094
:1013200047F20C01C4F20301086840F001000860B4
:1013300040F20401C2F2000108680130086040F286
:10134000B411C2F200010868013008607047000063
:1013500081B08DF803008DF8021045F2DC01C4F273
:101360000601086820F0E06008609DF8020001288E
:1013700009D1FFE745F2DC01C4F20601086840F03C
:10138000807008602DE09DF80200022809D1FFE777
:1013900045F2DC01C4F20601086840F00070086004
:1013A0001EE09DF80200032809D1FFE745F2DC01A9
:1013B000C4F20601086840F0407008600FE09DF834
:1013C0000200042809D1FFE745F2DC01C4F206015E
:1013D000086840F0C060086000E0FFE7FFE7FFE753
:1013E000FFE79DF80300012809D1FFE745F2DC0182
:1013F000C4F20601086840F08040086008E045F249
:10140000DC01C4F20601086820F080400860FFE7B4
:1014100001B0704781B00090FFE740F20400C2F2D3
:10142000000000680099884201D2FFE7F5E740F22A
:101430000401C2F200010020086001B07047000002
:1014400080B584B003900020029001200090042118
:10145000FFF77EFF009947F20800C4F20300016025
:1014600047F21000C4F203000160039847F2200223
:10147000C4F2030210603020019000F0BDF9019821
:1014800000F086F9019800F09DF9029840F0010003
:101490000290029847F22801C4F20301086004B0E8
:1014A00080BD000080B501F017F880BD83B00290C8
:1014B000019100920198007800EB8001009800787B
:1014C00000EB41000299087003B0704782B000F051
:1014D00037FA02210191084600F0A0FB019B04208D
:1014E0000122114600F0D6F900F09CFD00F0A2FFA9
:1014F00000F0FAFA4EF66020FFF7A2FFFFF740F87F
:10150000FFE700F001F901280DD1FFE748F20040A4
:10151000C1F6FF700A2101F009F801F045F8022038
:10152000FFF778FFEDE7FFE740F27002C2F200023A
:10153000022000900C21FFF767FB009840F2740234
:10154000C2F200020D21FFF75FFB00F06DFF0428DF
:101550000CD1FFE740F20800C2F2000000F008FFE3
:1015600040F28801C2F20001086002E0FFF700F8D3
:10157000FFE700F0A3FD01F017F80220FFF74AFF94
:10158000D2E7000080B584B040F2A400C2F20000AF
:10159000007818B9FFE700F0A3FCFFE740F2A400D1
:1015A000C2F20000007801285CD1FFE740F28C0015
:1015B000C2F20000007850B9FFE7002000F016FEEC
:1015C00040F28C01C2F200010120087049E040F2B3
:1015D0008C00C2F200000078012823D1FFE748F216
:1015E0000A40C1F6FF7003900078FFF70FFE0399E1
:1015F00040F2C410C2F2000000F092FB012810D1AA
:10160000FFE740F2A500C2F200000078032807D1EE
:10161000FFE740F28C01C2F2000102200870FFE7F0
:10162000FFE71DE042F22D63C0F2000300200290AC
:101630004FF47A710122019200F0A6FD01990298FF
:1016400040F2A402C2F20002107048F20A42C1F64F
:10165000FF72117040F28C01C2F200010870FFE7C6
:10166000FFE74FE040F2A400C2F200000078022839
:101670003DD1FFE740F28C00C2F20000007818BBB9
:10168000FFE748F20A40C1F6FF7000900078FFF7CC
:10169000BDFD009940F2A600C2F2000000F040FB40
:1016A000012810D1FFE740F2A500C2F20000007847
:1016B000032807D1FFE740F28C01C2F200010120AC
:1016C0000870FFE7FFE711E040F2A401C2F2000159
:1016D0000020087048F20A42C1F6FF720121117021
:1016E00040F28C01C2F200010870FFE709E040F20D
:1016F000C412C2F20002107851789278FFF73AFCD7
:10170000FFE7FFE704B080BD80B582B000208DF810
:101710000700ADF8040040F60120ADF8040001A870
:1017200000F04CFA012804D1FFE701208DF80700F2
:10173000FFE740F60730ADF8040001A800F03EFADC
:10174000012804D1FFE701208DF80700FFE740F6EC
:101750000140ADF8040001A800F030FA012804D1DE
:10176000FFE701208DF80700FFE740F6FF10ADF816
:10177000040001A800F022FA012804D1FFE70120AB
:101780008DF80700FFE79DF8070002B080BD00005C
:1017900081B08DF803009DF9031001EBD16020F0BA
:1017A0001F028A1A012101FA02F342114EF280212E
:1017B000CEF2000151F82200184341F8220001B096
:1017C0007047000081B08DF803009DF9031001EB14
:1017D000D16020F01F028A1A012101FA02F342119E
:1017E0004EF20011CEF2000151F82200184341F8E8
:1017F000220001B07047000081B08DF803008DF821
:1018000002109DF802009DF9032002EB927121F075
:101810000301521AD200043200FA02F34EF20042DF
:10182000CEF2000288581843885001B0704700007B
:101830004BF23000C4F204000068C00100280FD54C
:10184000FFE74BF23001C4F20401086840F08070F9
:10185000086040F27411C2F2000101200870FFE735
:101860004BF23400C4F204000068C00100280FD518
:10187000FFE74BF23401C4F20401086840F08070C5
:10188000086040F27411C2F2000102200870FFE704
:101890007047000082B08DF807008DF806108DF8B3
:1018A00005208DF80430002000909DF807000128E5
:1018B00005D1FFE7009840F0807000901AE09DF895
:1018C0000700022805D1FFE7009840F00070009063
:1018D0000FE09DF80700042805D1FFE7009840F0CD
:1018E000C060009004E0009840F040700090FFE776
:1018F000FFE7FFE79DF80610009840EA01400090DE
:101900009DF80510009840EA011000909DF8041021
:10191000009808430090009844F21401C4F20601B4
:101920000860FFE744F21000C4F2060001680620D8
:10193000B0EB116F01D0FFE7F4E702B07047000091
:1019400083B00020029001900090029840F00100C6
:101950000290029840F480700290029844F20411C0
:10196000C4F206010860019840F02000019001983F
:1019700020F008000190019840F0040001900198C7
:1019800044F20811C4F206010860009840F001001A
:101990000090009844F20011C4F206010860FFE7CD
:1019A00044F20010C4F206000068C001002801D40F
:1019B000FFE7F5E703B0704781B08DF803008DF8BD
:1019C000021045F2B401C4F20601086820F0E0609C
:1019D00008609DF80200012809D1FFE745F2B40133
:1019E000C4F20601086840F0807008602DE09DF8A0
:1019F0000200022809D1FFE745F2B401C4F2060152
:101A0000086840F0007008601EE09DF8020003289E
:101A100009D1FFE745F2B401C4F20601086840F0BD
:101A2000407008600FE09DF80200042809D1FFE72C
:101A300045F2B401C4F20601086840F0C0600860D5
:101A400000E0FFE7FFE7FFE7FFE79DF8030001285D
:101A500009D1FFE745F2B401C4F20601086840F07D
:101A60008040086008E045F2B401C4F2060108684D
:101A700020F080400860FFE701B0704780B501208A
:101A8000FFF76EF84AF23801C4F20401086820F446
:101A9000E0600860086840F4407008604AF23C0169
:101AA000C4F20401086820F4E0600860086840F4AB
:101AB000407008604AF24001C4F20401086820F452
:101AC000E0600860086840F4407008604AF2440131
:101AD000C4F20401086820F4E0600860086840F47B
:101AE0004070086080BD000080B582B0002000908A
:101AF0000190FFF7C3FF01200421FFF75DFF00986D
:101B00004DF21001C4F2020102220A6008604DF297
:101B10001802C4F2020210604DF21C02C4F202026A
:101B200010604DF22002C4F2020210604DF2400239
:101B3000C4F20202106840F080601060106840F447
:101B400080201060106840F00D001060019840F097
:101B500040700190019820F000400190019820F021
:101B600080400190019840F00F000190019840F0F2
:101B70008050019001984DF26002C4F202021060A0
:101B80004DF25802C4F20202106840F003001060E7
:101B90004DF22402C4F20202106840F00800106006
:101BA000086840F008000860106840F0010010600C
:101BB000086840F00100086002B080BD83B0029068
:101BC000002001908DF8030040F2B410C2F2000032
:101BD00000680190FFE74DF21400C4F202000068B3
:101BE000C00778B9FFE740F2B410C2F20000006805
:101BF0000199401A052804D3FFE701208DF803005E
:101C000000E0E8E7029800884DF26401C4F20201A6
:101C100008609DF8030003B07047000084B08DF8A1
:101C20000F008DF80E100020029001900090009897
:101C300044F20061C4F206010860FFE744F200606C
:101C4000C4F2060000680002002801D5FFE7F5E7AE
:101C50009DF80F0030B1FFE79DF80F100298084380
:101C60000290FFE79DF80E0038B1FFE79DF80E10D7
:101C7000029840EA01200290FFE7029844F20461D2
:101C8000C4F206010860019820F00100019001985B
:101C900020F470600190019840F460200190019858
:101CA00044F20861C4F206010860FFE744F20060F4
:101CB000C4F2060000680002002801D5FFE7F5E73E
:101CC000009840F001000090009844F20061C4F2D6
:101CD00006010860FFE744F20060C4F206000068F5
:101CE000C001002801D4FFE7F5E704B07047000009
:101CF00080B582B003200090002101220192FFF7FD
:101D000061F80098019A1021FFF75CF80098019A99
:101D10000F21FFF757F8019800F068FA02B080BD74
:101D200080B584B00390029100208DF8070040F246
:101D30007000C2F20000006820B3FFE740F27400B8
:101D4000C2F200000068E8B1FFE740F2B410C2F24E
:101D50000000006840F29801C2F200010968401AD0
:101D600040F6B83188420CD3FFE7FFF713FA0120A1
:101D70008DF8070040F2A501C2F2000103200870AF
:101D8000FFE7A9E040F2B410C2F20000006840F2A0
:101D90009801C2F20001086040F27000C2F2000037
:101DA000006840F29001C2F200010968884221D027
:101DB000FFE740F27000C2F20000006878B1FFE770
:101DC00002980078072804DBFFE7029901200870D9
:101DD00004E00299087803300870FFE7FFE740F25B
:101DE0007000C2F20000006840F29001C2F20001EF
:101DF0000860FFE740F27400C2F20000006840F2A1
:101E00009401C2F200010968884264D0FFE740F201
:101E10007400C2F200000068002851D0FFE7029869
:101E2000007801280FD1FFE7039880783B2804DB76
:101E3000FFE703990020887004E003998878013057
:101E40008870FFE73BE00298007804280FD1FFE795
:101E5000039840783B2804DBFFE703990020487093
:101E600004E00399487801304870FFE726E040F22B
:101E7000BC10C2F20000007801280FD1FFE70398E0
:101E800000780C2804DBFFE703990120087004E0C8
:101E90000399087801300870FFE70EE00398007896
:101EA000172804DBFFE703990020087004E003997A
:101EB000087801300870FFE7FFE7FFE7FFE7FFE77B
:101EC00040F27400C2F20000006840F29401C2F2D5
:101ED00000010860FFE7FFE79DF8070004B080BD40
:101EE00080B540F26E00C2F200000078042840F095
:101EF0009780FFE740F27000C2F200000068A0B3D4
:101F0000FFE740F2B410C2F20000006840F29C010A
:101F1000C2F200010968401A40F6B831884211D374
:101F2000FFE7FFF737F940F2A400C2F200000078A3
:101F300038B9FFE740F2A401C2F2000101200870A5
:101F4000FFE711E040F26D00C2F2000000780128C6
:101F500009D1FFE7FFF7CCFE40F26D01C2F20001AC
:101F600000200870FFE7FFE70AE040F2B410C2F279
:101F70000000006840F29C01C2F200010860FFE727
:101F800040F27400C2F200000068E8B3FFE740F2DC
:101F9000B410C2F20000006840F2A001C2F20001D9
:101FA0000968401A40F6B83188421AD3FFE7FFF7B4
:101FB000F1F840F2A400C2F20000007880B9FFE717
:101FC00040F2A401C2F200010220087040F2A60211
:101FD000C2F20002107851789278FEF7CBFFFFE74B
:101FE00011E040F26D00C2F200000078012809D132
:101FF000FFE7FFF77DFE40F26D01C2F20001002015
:102000000870FFE7FFE70AE040F2B410C2F20000F8
:10201000006840F2A001C2F200010860FFE7FFE79C
:1020200080BD000081B0002000900090FFE7009884
:10203000022827DCFFE7009800EB800240F27811CD
:10204000C2F20001002041F82200009A02EB820255
:1020500001EB82021071009A02EB820201EB820214
:102060009060009A02EB820201EB82021061009AFA
:1020700002EB820201EB8201C860FFE700980130A9
:102080000090D4E740F2B811C2F2000100200860CD
:102090004EF21402CEF200024EF65F2111604EF2B3
:1020A0001801CEF2000108604EF21001CEF20001DC
:1020B000086840F00300086001B0704780B582B046
:1020C00000200190FFE7019802285ADCFFE7019801
:1020D00000EB800140F27810C2F2000000EB8100BA
:1020E0008068002848D0FFE740F2B810C2F2000034
:1020F0000068019901EB810240F27811C2F20001FF
:1021000001EB82029168D268801A884233D3FFE7DC
:10211000019800EB800140F27810C2F2000000EB61
:1021200081000079012819D1FFE7019800EB8001B7
:1021300040F27810C2F20000009000EB81000069CC
:102140008047009940F2B810C2F200000068019A7E
:1021500002EB820201EB8201C8600BE0019800EB08
:10216000800140F27810C2F2000000EB81000069AB
:102170008047FFE7FFE7FFE7FFE7019801300190A5
:10218000A1E702B080BD000084B0039002918DF8F9
:1021900007200093039800EB800240F27811C2F20E
:1021A000000141F822009DF80700039A02EB820229
:1021B00001EB820210710298039A02EB820201EB9A
:1021C000820290600098039A02EB820201EB820285
:1021D000106140F2B810C2F200000068039A02EBEE
:1021E000820201EB8201C86004B0704781B00090A8
:1021F000009800EB800140F27810C2F2000000EB82
:1022000081010020886001B07047000040F2B811E1
:10221000C2F2000108680130086070474EF688512C
:10222000CEF20001086840F4700008604EF6347188
:10223000CEF20001086820F08040086042F20400FD
:10224000C4F205004CF22051CDF62811016000685F
:1022500042F20001C4F2050142F22010086042F28D
:102260000801C4F205014FF6FF70086070470000D6
:1022700081B08DF803008DF8021045F2AC11C4F264
:102280000601086820F0E06008609DF8020001285F
:1022900009D1FFE745F2AC11C4F20601086840F02D
:1022A000807008602DE09DF80200022809D1FFE748
:1022B00045F2AC11C4F20601086840F000700860F5
:1022C0001EE09DF80200032809D1FFE745F2AC119A
:1022D000C4F20601086840F0407008600FE09DF805
:1022E0000200042809D1FFE745F2AC11C4F206014F
:1022F000086840F0C060086000E0FFE7FFE7FFE724
:10230000FFE79DF80300012809D1FFE745F2AC1172
:10231000C4F20601086840F08040086008E045F219
:10232000AC11C4F20601086820F080400860FFE7A5
:1023300001B0704780B50120FEF72EFC4BF218016A
:10234000C4F20401086820F4E0600860086840F402
:10235000007008604BF21C01C4F20401086820F40C
:10236000E0600860086840F40070086080BD00000C
:1023700081B0009040F28D00C2F200000078042885
:102380004BD1FFE740F27800C2F20000007840F243
:102390007901C2F20001097888422AD0FFE740F2B1
:1023A0007800C2F20000027840F2AC01C2F20001F3
:1023B000895C009B40F2BE12C2F2000292F800C09B
:1023C00003F80C101178013111700078632807D3DD
:1023D000FFE740F27801C2F200010020087007E038
:1023E00040F27801C2F20001087801300870FFE77E
:1023F00012E040F2BE11C2F20001087840F2800201
:10240000C2F2000210600020087040F28D01C2F29A
:10241000000103200870FFE7FFE740F28000C2F2EE
:102420000000006801B0704740F28D00C2F2000069
:102430000078704780B586B0002001900590049028
:10244000FFF778FF012103910846FFF711FF01997B
:10245000059820F000500590059840F070600590B8
:10246000059840F034000590059820F40050059040
:1024700005984BF21002C4F206021060049820F492
:1024800000600490049820F010000490049840F438
:1024900000100490049840F44020049004984BF2FB
:1024A0001802C4F20602106021200290FFF7A4F97E
:1024B0000298FFF76DF90298FFF784F9039840F24C
:1024C000BD11C2F20001087040F28D01C2F200019C
:1024D0000320087006B080BD4BF21C00C4F2060059
:1024E000016840F27900C2F20000037840F2AC02C9
:1024F000C2F20002D1540078632807D3FFE740F20C
:102500007901C2F200010020087007E040F2790171
:10251000C2F20001087801300870FFE740F28D0137
:10252000C2F20001042008707047000084B00390DC
:102530000291002001908DF8030040F2BD10C2F21C
:1025400000000078012826D1FFE700200190FFE776
:1025500001980299884217D2FFE703980078019A00
:1025600040F21011C2F20001885403980130039028
:1025700040F28401C2F20001086801300860FFE700
:10258000019801300190E3E740F2BD11C2F2000171
:102590000220087003E001208DF80300FFE79DF89A
:1025A000030004B07047000040F2BD10C2F200000A
:1025B0000078022838D1FFE74BF21400C4F206007D
:1025C00000680002002821D5FFE740F28400C2F233
:1025D00000000068D0B1FFE740F2C011C2F2000174
:1025E0000A6840F21010C2F20000805C4BF21C023C
:1025F000C4F20602106008680130086040F28401ED
:10260000C2F200010868013808600CE040F2C01115
:10261000C2F200010020086040F2BD11C2F20001C8
:1026200001200870FFE7FFE77047000040F2C41088
:10263000C2F2000080783B2852DBFFE740F2C41072
:10264000C2F200000021817040783B283FDBFFE7A9
:1026500040F2C411C2F200010020487040F2BC10E8
:10266000C2F200000078012818D1FFE740F2C41040
:10267000C2F2000000780C2807DBFFE740F2C4112B
:10268000C2F200010120087007E040F2C411C2F25A
:102690000001087801300870FFE717E040F2C4102D
:1026A000C2F200000078172807DBFFE740F2C411F0
:1026B000C2F200010020087007E040F2C411C2F22B
:1026C0000001087801300870FFE7FFE707E040F2FB
:1026D000C411C2F20001487801304870FFE707E0FA
:1026E00040F2C411C2F20001887801308870FFE71F
:1026F0007047000085B040F2B440C0F200000068AE
:10270000029040F2BC40C0F200000068019040F22C
:10271000B840C0F200000068009000208DF80F0063
:1027200000980199884224D0FFE700200490FFE739
:1027300004980299B0EB910F0CD2FFE70198049A2C
:1027400050F82200009941F82200FFE70498013078
:102750000490EDE740F2B840C0F2000000689DF838
:102760000F2040F21041C0F2000151F82210086021
:102770000EE040F2BC40C0F2000000689DF80F205F
:1027800040F21041C0F2000151F822100860FFE74A
:1027900005B0704780B582B000200190FEF796FE2C
:1027A000F1EE100A4FF6FF71C0F2C03120EA0100CD
:1027B00040F04070E1EE100A70470000DC27000096
:1027C0000084FF1F0C00000050040000E8270000F8
:1027D00000000020CC0100006C0400005B45525258
:0827E0004F524C45445D01001D
:0400000500000415DE
:00000001FF
